{
  "contractName": "VoteOnDino",
  "abi": [
    {
      "inputs": [
        {
          "internalType": "uint256",
          "name": "_votingTime",
          "type": "uint256"
        }
      ],
      "stateMutability": "nonpayable",
      "type": "constructor"
    },
    {
      "inputs": [],
      "name": "DinoNameAlreadyProposed",
      "type": "error"
    },
    {
      "inputs": [],
      "name": "DinoNameDoesNotExist",
      "type": "error"
    },
    {
      "inputs": [],
      "name": "DinoVoteAlreadyEnded",
      "type": "error"
    },
    {
      "inputs": [],
      "name": "DinoVoteNotEnded",
      "type": "error"
    },
    {
      "inputs": [],
      "name": "NoDinoNamesProposed",
      "type": "error"
    },
    {
      "anonymous": false,
      "inputs": [
        {
          "indexed": false,
          "internalType": "bytes32",
          "name": "name",
          "type": "bytes32"
        },
        {
          "indexed": false,
          "internalType": "address",
          "name": "submitter",
          "type": "address"
        },
        {
          "indexed": false,
          "internalType": "uint256",
          "name": "votes",
          "type": "uint256"
        }
      ],
      "name": "DinoVoteEnded",
      "type": "event"
    },
    {
      "anonymous": false,
      "inputs": [
        {
          "indexed": false,
          "internalType": "bytes32",
          "name": "name",
          "type": "bytes32"
        },
        {
          "indexed": false,
          "internalType": "uint256",
          "name": "votes",
          "type": "uint256"
        }
      ],
      "name": "DinoVotedOn",
      "type": "event"
    },
    {
      "inputs": [
        {
          "internalType": "uint256",
          "name": "",
          "type": "uint256"
        }
      ],
      "name": "dinoNames",
      "outputs": [
        {
          "internalType": "bytes32",
          "name": "name",
          "type": "bytes32"
        },
        {
          "internalType": "address",
          "name": "submitter",
          "type": "address"
        },
        {
          "internalType": "uint256",
          "name": "votes",
          "type": "uint256"
        }
      ],
      "stateMutability": "view",
      "type": "function",
      "constant": true
    },
    {
      "inputs": [],
      "name": "dinoNamesCount",
      "outputs": [
        {
          "internalType": "uint256",
          "name": "",
          "type": "uint256"
        }
      ],
      "stateMutability": "view",
      "type": "function",
      "constant": true
    },
    {
      "inputs": [],
      "name": "ended",
      "outputs": [
        {
          "internalType": "bool",
          "name": "",
          "type": "bool"
        }
      ],
      "stateMutability": "view",
      "type": "function",
      "constant": true
    },
    {
      "inputs": [],
      "name": "voteEndTime",
      "outputs": [
        {
          "internalType": "uint256",
          "name": "",
          "type": "uint256"
        }
      ],
      "stateMutability": "view",
      "type": "function",
      "constant": true
    },
    {
      "inputs": [
        {
          "internalType": "bytes32",
          "name": "dinoName",
          "type": "bytes32"
        }
      ],
      "name": "addDinoName",
      "outputs": [],
      "stateMutability": "nonpayable",
      "type": "function"
    },
    {
      "inputs": [],
      "name": "getDinoNamesCount",
      "outputs": [
        {
          "internalType": "uint256",
          "name": "length",
          "type": "uint256"
        }
      ],
      "stateMutability": "view",
      "type": "function",
      "constant": true
    },
    {
      "inputs": [
        {
          "internalType": "bytes32",
          "name": "dinoName",
          "type": "bytes32"
        }
      ],
      "name": "isDinoName",
      "outputs": [
        {
          "internalType": "bool",
          "name": "",
          "type": "bool"
        }
      ],
      "stateMutability": "view",
      "type": "function",
      "constant": true
    },
    {
      "inputs": [],
      "name": "voteEnd",
      "outputs": [],
      "stateMutability": "nonpayable",
      "type": "function"
    },
    {
      "inputs": [],
      "name": "winningProposal",
      "outputs": [],
      "stateMutability": "nonpayable",
      "type": "function"
    },
    {
      "inputs": [],
      "name": "winningName",
      "outputs": [
        {
          "internalType": "bytes32",
          "name": "name",
          "type": "bytes32"
        }
      ],
      "stateMutability": "view",
      "type": "function",
      "constant": true
    },
    {
      "inputs": [
        {
          "internalType": "bytes32",
          "name": "dinoName",
          "type": "bytes32"
        }
      ],
      "name": "voteDinoName",
      "outputs": [],
      "stateMutability": "nonpayable",
      "type": "function"
    }
  ],
  "bytecode": "0x608060405260006002556000600460006101000a81548160ff0219169083151502179055503480156200003157600080fd5b5060405162000e5138038062000e51833981810160405281019062000057919062000089565b8042620000659190620000bb565b6003819055505062000170565b600081519050620000838162000156565b92915050565b600060208284031215620000a257620000a162000151565b5b6000620000b28482850162000072565b91505092915050565b6000620000c88262000118565b9150620000d58362000118565b9250827fffffffffffffffffffffffffffffffffffffffffffffffffffffffffffffffff038211156200010d576200010c62000122565b5b828201905092915050565b6000819050919050565b7f4e487b7100000000000000000000000000000000000000000000000000000000600052601160045260246000fd5b600080fd5b620001618162000118565b81146200016d57600080fd5b50565b610cd180620001806000396000f3fe608060405234801561001057600080fd5b50600436106100a95760003560e01c80637aeffe11116100715780637aeffe111461014257806390ccb2221461015e5780639e6cb42b14610190578063ddbe8f09146101ae578063df3653c7146101b8578063fef9cfde146101d4576100a9565b806312fa6feb146100ae5780631f9ff6d7146100cc57806324e49f1f146100ea5780635a25488f1461011a578063609ff1bd14610138575b600080fd5b6100b66101f2565b6040516100c39190610abe565b60405180910390f35b6100d4610205565b6040516100e19190610ad9565b60405180910390f35b61010460048036038101906100ff9190610a28565b61022b565b6040516101119190610abe565b60405180910390f35b610122610255565b60405161012f9190610b54565b60405180910390f35b610140610261565b005b61015c60048036038101906101579190610a28565b6104a6565b005b61017860048036038101906101739190610a55565b610600565b60405161018793929190610af4565b60405180910390f35b61019861065a565b6040516101a59190610b54565b60405180910390f35b6101b6610660565b005b6101d260048036038101906101cd9190610a28565b610841565b005b6101dc6109f8565b6040516101e99190610b54565b60405180910390f35b600460009054906101000a900460ff1681565b6000600460009054906101000a900460ff1661022057600080fd5b600560000154905090565b60006001600083815260200190815260200160002060009054906101000a900460ff169050919050565b60008080549050905090565b600460009054906101000a900460ff1661027a57600080fd5b6000808054905014156102b9576040517f04c2ddca00000000000000000000000000000000000000000000000000000000815260040160405180910390fd5b6000806000815481106102cf576102ce610c39565b5b9060005260206000209060030201604051806060016040529081600082015481526020016001820160009054906101000a900473ffffffffffffffffffffffffffffffffffffffff1673ffffffffffffffffffffffffffffffffffffffff1673ffffffffffffffffffffffffffffffffffffffff168152602001600282015481525050905060005b6000805490508110156104415781604001516000828154811061037d5761037c610c39565b5b9060005260206000209060030201600201541061042e57600081815481106103a8576103a7610c39565b5b9060005260206000209060030201604051806060016040529081600082015481526020016001820160009054906101000a900473ffffffffffffffffffffffffffffffffffffffff1673ffffffffffffffffffffffffffffffffffffffff1673ffffffffffffffffffffffffffffffffffffffff16815260200160028201548152505091505b808061043990610bc1565b915050610357565b508060056000820151816000015560208201518160010160006101000a81548173ffffffffffffffffffffffffffffffffffffffff021916908373ffffffffffffffffffffffffffffffffffffffff1602179055506040820151816002015590505050565b600460009054906101000a900460ff16156104c057600080fd5b6104c98161022b565b15610500576040517fbf35f3ee00000000000000000000000000000000000000000000000000000000815260040160405180910390fd5b600180600083815260200190815260200160002060006101000a81548160ff021916908315150217905550600060405180606001604052808381526020013373ffffffffffffffffffffffffffffffffffffffff168152602001600081525090806001815401808255809150506001900390600052602060002090600302016000909190919091506000820151816000015560208201518160010160006101000a81548173ffffffffffffffffffffffffffffffffffffffff021916908373ffffffffffffffffffffffffffffffffffffffff160217905550604082015181600201555050600260008154809291906105f890610bc1565b919050555050565b6000818154811061061057600080fd5b90600052602060002090600302016000915090508060000154908060010160009054906101000a900473ffffffffffffffffffffffffffffffffffffffff16908060020154905083565b60035481565b60035442101561069c576040517ff7405fad00000000000000000000000000000000000000000000000000000000815260040160405180910390fd5b600460009054906101000a900460ff16156106e3576040517f63773e7c00000000000000000000000000000000000000000000000000000000815260040160405180910390fd5b6001600460006101000a81548160ff021916908315150217905550610706610261565b60005b6000805490508110156107cc576001600080838154811061072d5761072c610c39565b5b906000526020600020906003020160000154815260200190815260200160002060006101000a81549060ff02191690556000818154811061077157610770610c39565b5b90600052602060002090600302016000808201600090556001820160006101000a81549073ffffffffffffffffffffffffffffffffffffffff02191690556002820160009055505080806107c490610bc1565b915050610709565b5060006002819055507f4cc94194b8432895716beab50761bed1e2c5d69817f5331133261cfa54f22fea600560000154600560010160009054906101000a900473ffffffffffffffffffffffffffffffffffffffff1660056002015460405161083793929190610af4565b60405180910390a1565b600460009054906101000a900460ff161561085b57600080fd5b6108648161022b565b61089a576040517f41de13c800000000000000000000000000000000000000000000000000000000815260040160405180910390fd5b600460009054906101000a900460ff16156108e1576040517f63773e7c00000000000000000000000000000000000000000000000000000000815260040160405180910390fd5b60005b60008054905081101561097157816000828154811061090657610905610c39565b5b906000526020600020906003020160000154141561095e576000818154811061093257610931610c39565b5b9060005260206000209060030201600201600081548092919061095490610bc1565b9190505550610971565b808061096990610bc1565b9150506108e4565b7fc484371814e9789a2ee22ffb2a1a3f87b50375c472bbcca7ac097deeffcf4ecc600082815481106109a6576109a5610c39565b5b906000526020600020906003020160000154600083815481106109cc576109cb610c39565b5b9060005260206000209060030201600201546040516109ec929190610b2b565b60405180910390a15050565b60025481565b600081359050610a0d81610c6d565b92915050565b600081359050610a2281610c84565b92915050565b600060208284031215610a3e57610a3d610c68565b5b6000610a4c848285016109fe565b91505092915050565b600060208284031215610a6b57610a6a610c68565b5b6000610a7984828501610a13565b91505092915050565b610a8b81610b6f565b82525050565b610a9a81610b81565b82525050565b610aa981610b8d565b82525050565b610ab881610bb7565b82525050565b6000602082019050610ad36000830184610a91565b92915050565b6000602082019050610aee6000830184610aa0565b92915050565b6000606082019050610b096000830186610aa0565b610b166020830185610a82565b610b236040830184610aaf565b949350505050565b6000604082019050610b406000830185610aa0565b610b4d6020830184610aaf565b9392505050565b6000602082019050610b696000830184610aaf565b92915050565b6000610b7a82610b97565b9050919050565b60008115159050919050565b6000819050919050565b600073ffffffffffffffffffffffffffffffffffffffff82169050919050565b6000819050919050565b6000610bcc82610bb7565b91507fffffffffffffffffffffffffffffffffffffffffffffffffffffffffffffffff821415610bff57610bfe610c0a565b5b600182019050919050565b7f4e487b7100000000000000000000000000000000000000000000000000000000600052601160045260246000fd5b7f4e487b7100000000000000000000000000000000000000000000000000000000600052603260045260246000fd5b600080fd5b610c7681610b8d565b8114610c8157600080fd5b50565b610c8d81610bb7565b8114610c9857600080fd5b5056fea26469706673582212200260322a757cffe0fc66bc9b768022afcef9c776947376d7c55eee6478f2068764736f6c63430008060033",
  "immutableReferences": {},
  "source": "// SPDX-License-Identifier: GPL-3.0\npragma solidity ^0.8.4;\n\ncontract VoteOnDino {\n    struct DinoName {\n        bytes32 name;\n        address submitter;\n        uint256 votes;\n    }\n\n    DinoName[] public dinoNames;\n    mapping(bytes32 => bool) knownDinoNames;\n    uint256 public dinoNamesCount = 0;\n\n    uint256 public voteEndTime;\n    bool public ended = false;\n    DinoName winner;\n\n    event DinoVoteEnded(bytes32 name, address submitter, uint256 votes);\n    event DinoVotedOn(bytes32 name, uint256 votes);\n\n    /// This dino name has already been proposed.\n    error DinoNameAlreadyProposed();\n    /// The dino vote has not ended yet.\n    error DinoVoteNotEnded();\n    /// The dino vote has already ended.\n    error DinoVoteAlreadyEnded();\n    /// There were no dino names proposed.\n    error NoDinoNamesProposed();\n    /// This dino name does not exists.\n    error DinoNameDoesNotExist();\n\n    constructor(uint256 _votingTime) {\n        voteEndTime = block.timestamp + _votingTime;\n    }\n\n    function addDinoName(bytes32 dinoName) public {\n        require(!ended);\n        if (isDinoName(dinoName)) revert DinoNameAlreadyProposed();\n        knownDinoNames[dinoName] = true;\n        dinoNames.push(\n            DinoName({name: dinoName, votes: 0, submitter: msg.sender})\n        );\n        dinoNamesCount++;\n    }\n\n    function getDinoNamesCount() public view returns (uint256 length) {\n        return (dinoNames.length);\n    }\n\n    function isDinoName(bytes32 dinoName) public view returns (bool) {\n        return knownDinoNames[dinoName];\n    }\n\n    function voteEnd() public {\n        if (block.timestamp < voteEndTime) revert DinoVoteNotEnded();\n        if (ended) revert DinoVoteAlreadyEnded();\n\n        ended = true;\n        winningProposal();\n\n        for (uint256 i = 0; i < dinoNames.length; i++) {\n            // delete doesn't actually remove from array.length calls\n            // just nulls values out (need better delete function)\n            delete knownDinoNames[dinoNames[i].name];\n            delete dinoNames[i];\n        }\n        dinoNamesCount = 0;\n\n        emit DinoVoteEnded(winner.name, winner.submitter, winner.votes);\n    }\n\n    function winningProposal() public {\n        require(ended);\n        if (dinoNames.length == 0) revert NoDinoNamesProposed();\n\n        DinoName memory _winner = dinoNames[0];\n        for (uint256 i = 0; i < dinoNames.length; i++) {\n            if (dinoNames[i].votes >= _winner.votes) _winner = dinoNames[i];\n        }\n        winner = _winner;\n    }\n\n    function winningName() public view returns (bytes32 name) {\n        require(ended);\n        name = winner.name;\n    }\n\n    function voteDinoName(bytes32 dinoName) public {\n        // Known bug: address can vote on name more than once\n        require(!ended);\n        if (!isDinoName(dinoName)) revert DinoNameDoesNotExist();\n        if (ended) revert DinoVoteAlreadyEnded();\n\n        uint256 i;\n        for (i = 0; i < dinoNames.length; i++) {\n            if (dinoNames[i].name == dinoName) {\n                dinoNames[i].votes++;\n                break;\n            }\n        }\n\n        emit DinoVotedOn(dinoNames[i].name, dinoNames[i].votes);\n    }\n}\n",
  "sourcePath": "/Users/bryanliu/Desktop/development/crypto/dino-democracy/contracts/VoteOnDino.sol",
  "compiler": {
    "name": "solc",
    "version": "0.8.6+commit.11564f7e.Emscripten.clang"
  },
  "schemaVersion": "3.4.1",
  "updatedAt": "2021-07-10T03:05:25.577Z",
  "networkType": "ethereum",
  "devdoc": {
    "kind": "dev",
    "methods": {},
    "version": 1
  },
  "userdoc": {
    "errors": {
      "DinoNameAlreadyProposed()": [
        {
          "notice": "This dino name has already been proposed."
        }
      ],
      "DinoNameDoesNotExist()": [
        {
          "notice": "This dino name does not exists."
        }
      ],
      "DinoVoteAlreadyEnded()": [
        {
          "notice": "The dino vote has already ended."
        }
      ],
      "DinoVoteNotEnded()": [
        {
          "notice": "The dino vote has not ended yet."
        }
      ],
      "NoDinoNamesProposed()": [
        {
          "notice": "There were no dino names proposed."
        }
      ]
    },
    "kind": "user",
    "methods": {},
    "version": 1
  }
}