{
  "contractName": "VoteOnDino",
  "abi": [
    {
      "inputs": [
        {
          "internalType": "uint256",
          "name": "_votingTime",
          "type": "uint256"
        }
      ],
      "stateMutability": "nonpayable",
      "type": "constructor"
    },
    {
      "inputs": [],
      "name": "DinoNameAlreadyProposed",
      "type": "error"
    },
    {
      "inputs": [],
      "name": "DinoNameDoesNotExist",
      "type": "error"
    },
    {
      "inputs": [],
      "name": "DinoVoteAlreadyEnded",
      "type": "error"
    },
    {
      "inputs": [],
      "name": "DinoVoteNotEnded",
      "type": "error"
    },
    {
      "inputs": [],
      "name": "NoDinoNamesProposed",
      "type": "error"
    },
    {
      "anonymous": false,
      "inputs": [
        {
          "indexed": false,
          "internalType": "bytes32",
          "name": "name",
          "type": "bytes32"
        },
        {
          "indexed": false,
          "internalType": "address",
          "name": "submitter",
          "type": "address"
        },
        {
          "indexed": false,
          "internalType": "uint256",
          "name": "votes",
          "type": "uint256"
        }
      ],
      "name": "DinoVoteEnded",
      "type": "event"
    },
    {
      "anonymous": false,
      "inputs": [
        {
          "indexed": false,
          "internalType": "bytes32",
          "name": "name",
          "type": "bytes32"
        },
        {
          "indexed": false,
          "internalType": "uint256",
          "name": "votes",
          "type": "uint256"
        }
      ],
      "name": "DinoVotedOn",
      "type": "event"
    },
    {
      "inputs": [
        {
          "internalType": "uint256",
          "name": "",
          "type": "uint256"
        }
      ],
      "name": "dinoNames",
      "outputs": [
        {
          "internalType": "bytes32",
          "name": "name",
          "type": "bytes32"
        },
        {
          "internalType": "address",
          "name": "submitter",
          "type": "address"
        },
        {
          "internalType": "uint256",
          "name": "votes",
          "type": "uint256"
        }
      ],
      "stateMutability": "view",
      "type": "function",
      "constant": true
    },
    {
      "inputs": [],
      "name": "dinoNamesCount",
      "outputs": [
        {
          "internalType": "uint256",
          "name": "",
          "type": "uint256"
        }
      ],
      "stateMutability": "view",
      "type": "function",
      "constant": true
    },
    {
      "inputs": [],
      "name": "voteEndTime",
      "outputs": [
        {
          "internalType": "uint256",
          "name": "",
          "type": "uint256"
        }
      ],
      "stateMutability": "view",
      "type": "function",
      "constant": true
    },
    {
      "inputs": [
        {
          "internalType": "bytes32",
          "name": "dinoName",
          "type": "bytes32"
        }
      ],
      "name": "addDinoName",
      "outputs": [],
      "stateMutability": "nonpayable",
      "type": "function"
    },
    {
      "inputs": [],
      "name": "getDinoNamesCount",
      "outputs": [
        {
          "internalType": "uint256",
          "name": "length",
          "type": "uint256"
        }
      ],
      "stateMutability": "view",
      "type": "function",
      "constant": true
    },
    {
      "inputs": [
        {
          "internalType": "bytes32",
          "name": "dinoName",
          "type": "bytes32"
        }
      ],
      "name": "isDinoName",
      "outputs": [
        {
          "internalType": "bool",
          "name": "",
          "type": "bool"
        }
      ],
      "stateMutability": "view",
      "type": "function",
      "constant": true
    },
    {
      "inputs": [],
      "name": "voteEnd",
      "outputs": [],
      "stateMutability": "nonpayable",
      "type": "function"
    },
    {
      "inputs": [],
      "name": "winningProposal",
      "outputs": [],
      "stateMutability": "nonpayable",
      "type": "function"
    },
    {
      "inputs": [],
      "name": "winningName",
      "outputs": [
        {
          "internalType": "bytes32",
          "name": "name",
          "type": "bytes32"
        }
      ],
      "stateMutability": "view",
      "type": "function",
      "constant": true
    },
    {
      "inputs": [
        {
          "internalType": "bytes32",
          "name": "dinoName",
          "type": "bytes32"
        }
      ],
      "name": "voteDinoName",
      "outputs": [],
      "stateMutability": "nonpayable",
      "type": "function"
    }
  ],
  "bytecode": "0x608060405260006002556000600460006101000a81548160ff0219169083151502179055503480156200003157600080fd5b5060405162000e1538038062000e15833981810160405281019062000057919062000089565b8042620000659190620000bb565b6003819055505062000170565b600081519050620000838162000156565b92915050565b600060208284031215620000a257620000a162000151565b5b6000620000b28482850162000072565b91505092915050565b6000620000c88262000118565b9150620000d58362000118565b9250827fffffffffffffffffffffffffffffffffffffffffffffffffffffffffffffffff038211156200010d576200010c62000122565b5b828201905092915050565b6000819050919050565b7f4e487b7100000000000000000000000000000000000000000000000000000000600052601160045260246000fd5b600080fd5b620001618162000118565b81146200016d57600080fd5b50565b610c9580620001806000396000f3fe608060405234801561001057600080fd5b506004361061009e5760003560e01c806390ccb2221161006657806390ccb222146101355780639e6cb42b14610167578063ddbe8f0914610185578063df3653c71461018f578063fef9cfde146101ab5761009e565b80631f9ff6d7146100a357806324e49f1f146100c15780635a25488f146100f1578063609ff1bd1461010f5780637aeffe1114610119575b600080fd5b6100ab6101c9565b6040516100b89190610a9d565b60405180910390f35b6100db60048036038101906100d691906109ec565b6101ef565b6040516100e89190610a82565b60405180910390f35b6100f9610219565b6040516101069190610b18565b60405180910390f35b610117610225565b005b610133600480360381019061012e91906109ec565b61046a565b005b61014f600480360381019061014a9190610a19565b6105c4565b60405161015e93929190610ab8565b60405180910390f35b61016f61061e565b60405161017c9190610b18565b60405180910390f35b61018d610624565b005b6101a960048036038101906101a491906109ec565b610805565b005b6101b36109bc565b6040516101c09190610b18565b60405180910390f35b6000600460009054906101000a900460ff166101e457600080fd5b600560000154905090565b60006001600083815260200190815260200160002060009054906101000a900460ff169050919050565b60008080549050905090565b600460009054906101000a900460ff1661023e57600080fd5b60008080549050141561027d576040517f04c2ddca00000000000000000000000000000000000000000000000000000000815260040160405180910390fd5b60008060008154811061029357610292610bfd565b5b9060005260206000209060030201604051806060016040529081600082015481526020016001820160009054906101000a900473ffffffffffffffffffffffffffffffffffffffff1673ffffffffffffffffffffffffffffffffffffffff1673ffffffffffffffffffffffffffffffffffffffff168152602001600282015481525050905060005b6000805490508110156104055781604001516000828154811061034157610340610bfd565b5b906000526020600020906003020160020154106103f2576000818154811061036c5761036b610bfd565b5b9060005260206000209060030201604051806060016040529081600082015481526020016001820160009054906101000a900473ffffffffffffffffffffffffffffffffffffffff1673ffffffffffffffffffffffffffffffffffffffff1673ffffffffffffffffffffffffffffffffffffffff16815260200160028201548152505091505b80806103fd90610b85565b91505061031b565b508060056000820151816000015560208201518160010160006101000a81548173ffffffffffffffffffffffffffffffffffffffff021916908373ffffffffffffffffffffffffffffffffffffffff1602179055506040820151816002015590505050565b600460009054906101000a900460ff161561048457600080fd5b61048d816101ef565b156104c4576040517fbf35f3ee00000000000000000000000000000000000000000000000000000000815260040160405180910390fd5b600180600083815260200190815260200160002060006101000a81548160ff021916908315150217905550600060405180606001604052808381526020013373ffffffffffffffffffffffffffffffffffffffff168152602001600081525090806001815401808255809150506001900390600052602060002090600302016000909190919091506000820151816000015560208201518160010160006101000a81548173ffffffffffffffffffffffffffffffffffffffff021916908373ffffffffffffffffffffffffffffffffffffffff160217905550604082015181600201555050600260008154809291906105bc90610b85565b919050555050565b600081815481106105d457600080fd5b90600052602060002090600302016000915090508060000154908060010160009054906101000a900473ffffffffffffffffffffffffffffffffffffffff16908060020154905083565b60035481565b600354421015610660576040517ff7405fad00000000000000000000000000000000000000000000000000000000815260040160405180910390fd5b600460009054906101000a900460ff16156106a7576040517f63773e7c00000000000000000000000000000000000000000000000000000000815260040160405180910390fd5b6001600460006101000a81548160ff0219169083151502179055506106ca610225565b60005b60008054905081101561079057600160008083815481106106f1576106f0610bfd565b5b906000526020600020906003020160000154815260200190815260200160002060006101000a81549060ff02191690556000818154811061073557610734610bfd565b5b90600052602060002090600302016000808201600090556001820160006101000a81549073ffffffffffffffffffffffffffffffffffffffff021916905560028201600090555050808061078890610b85565b9150506106cd565b5060006002819055507f4cc94194b8432895716beab50761bed1e2c5d69817f5331133261cfa54f22fea600560000154600560010160009054906101000a900473ffffffffffffffffffffffffffffffffffffffff166005600201546040516107fb93929190610ab8565b60405180910390a1565b600460009054906101000a900460ff161561081f57600080fd5b610828816101ef565b61085e576040517f41de13c800000000000000000000000000000000000000000000000000000000815260040160405180910390fd5b600460009054906101000a900460ff16156108a5576040517f63773e7c00000000000000000000000000000000000000000000000000000000815260040160405180910390fd5b60005b6000805490508110156109355781600082815481106108ca576108c9610bfd565b5b906000526020600020906003020160000154141561092257600081815481106108f6576108f5610bfd565b5b9060005260206000209060030201600201600081548092919061091890610b85565b9190505550610935565b808061092d90610b85565b9150506108a8565b7fc484371814e9789a2ee22ffb2a1a3f87b50375c472bbcca7ac097deeffcf4ecc6000828154811061096a57610969610bfd565b5b906000526020600020906003020160000154600083815481106109905761098f610bfd565b5b9060005260206000209060030201600201546040516109b0929190610aef565b60405180910390a15050565b60025481565b6000813590506109d181610c31565b92915050565b6000813590506109e681610c48565b92915050565b600060208284031215610a0257610a01610c2c565b5b6000610a10848285016109c2565b91505092915050565b600060208284031215610a2f57610a2e610c2c565b5b6000610a3d848285016109d7565b91505092915050565b610a4f81610b33565b82525050565b610a5e81610b45565b82525050565b610a6d81610b51565b82525050565b610a7c81610b7b565b82525050565b6000602082019050610a976000830184610a55565b92915050565b6000602082019050610ab26000830184610a64565b92915050565b6000606082019050610acd6000830186610a64565b610ada6020830185610a46565b610ae76040830184610a73565b949350505050565b6000604082019050610b046000830185610a64565b610b116020830184610a73565b9392505050565b6000602082019050610b2d6000830184610a73565b92915050565b6000610b3e82610b5b565b9050919050565b60008115159050919050565b6000819050919050565b600073ffffffffffffffffffffffffffffffffffffffff82169050919050565b6000819050919050565b6000610b9082610b7b565b91507fffffffffffffffffffffffffffffffffffffffffffffffffffffffffffffffff821415610bc357610bc2610bce565b5b600182019050919050565b7f4e487b7100000000000000000000000000000000000000000000000000000000600052601160045260246000fd5b7f4e487b7100000000000000000000000000000000000000000000000000000000600052603260045260246000fd5b600080fd5b610c3a81610b51565b8114610c4557600080fd5b50565b610c5181610b7b565b8114610c5c57600080fd5b5056fea264697066735822122027547640b04b1376aacc6c020dbb75b68abbba60c7b6b9424ecb78bcea2ff94f64736f6c63430008050033",
  "immutableReferences": {},
  "source": "// SPDX-License-Identifier: GPL-3.0\npragma solidity ^0.8.4;\n\ncontract VoteOnDino {\n    struct DinoName {\n        bytes32 name;\n        address submitter;\n        uint256 votes;\n    }\n\n    DinoName[] public dinoNames;\n    mapping(bytes32 => bool) knownDinoNames;\n    uint256 public dinoNamesCount = 0;\n\n    uint256 public voteEndTime;\n    bool ended = false;\n    DinoName winner;\n\n    event DinoVoteEnded(bytes32 name, address submitter, uint256 votes);\n    event DinoVotedOn(bytes32 name, uint256 votes);\n\n    /// This dino name has already been proposed.\n    error DinoNameAlreadyProposed();\n    /// The dino vote has not ended yet.\n    error DinoVoteNotEnded();\n    /// The dino vote has already ended.\n    error DinoVoteAlreadyEnded();\n    /// There were no dino names proposed.\n    error NoDinoNamesProposed();\n    /// This dino name does not exists.\n    error DinoNameDoesNotExist();\n\n    constructor(uint256 _votingTime) {\n        voteEndTime = block.timestamp + _votingTime;\n    }\n\n    function addDinoName(bytes32 dinoName) public {\n        require(!ended);\n        if (isDinoName(dinoName)) revert DinoNameAlreadyProposed();\n        knownDinoNames[dinoName] = true;\n        dinoNames.push(\n            DinoName({name: dinoName, votes: 0, submitter: msg.sender})\n        );\n        dinoNamesCount++;\n    }\n\n    function getDinoNamesCount() public view returns (uint256 length) {\n        return (dinoNames.length);\n    }\n\n    function isDinoName(bytes32 dinoName) public view returns (bool) {\n        return knownDinoNames[dinoName];\n    }\n\n    function voteEnd() public {\n        if (block.timestamp < voteEndTime) revert DinoVoteNotEnded();\n        if (ended) revert DinoVoteAlreadyEnded();\n\n        ended = true;\n        winningProposal();\n\n        for (uint256 i = 0; i < dinoNames.length; i++) {\n            // delete doesn't actually remove from array.length calls\n            // just nulls values out (need better delete function)\n            delete knownDinoNames[dinoNames[i].name];\n            delete dinoNames[i];\n        }\n        dinoNamesCount = 0;\n\n        emit DinoVoteEnded(winner.name, winner.submitter, winner.votes);\n    }\n\n    function winningProposal() public {\n        require(ended);\n        if (dinoNames.length == 0) revert NoDinoNamesProposed();\n\n        DinoName memory _winner = dinoNames[0];\n        for (uint256 i = 0; i < dinoNames.length; i++) {\n            if (dinoNames[i].votes >= _winner.votes) _winner = dinoNames[i];\n        }\n        winner = _winner;\n    }\n\n    function winningName() public view returns (bytes32 name) {\n        require(ended);\n        name = winner.name;\n    }\n\n    function voteDinoName(bytes32 dinoName) public {\n        // Known bug: address can vote on name more than once\n        require(!ended);\n        if (!isDinoName(dinoName)) revert DinoNameDoesNotExist();\n        if (ended) revert DinoVoteAlreadyEnded();\n\n        uint256 i;\n        for (i = 0; i < dinoNames.length; i++) {\n            if (dinoNames[i].name == dinoName) {\n                dinoNames[i].votes++;\n                break;\n            }\n        }\n\n        emit DinoVotedOn(dinoNames[i].name, dinoNames[i].votes);\n    }\n}\n",
  "sourcePath": "/Users/bryanliu/Desktop/development/crypto/dino-democracy/contracts/VoteOnDino.sol",
  "compiler": {
    "name": "solc",
    "version": "0.8.5+commit.a4f2e591.Emscripten.clang"
  },
  "schemaVersion": "3.4.1",
  "updatedAt": "2021-06-20T20:12:27.761Z",
  "networkType": "ethereum",
  "devdoc": {
    "kind": "dev",
    "methods": {},
    "version": 1
  },
  "userdoc": {
    "errors": {
      "DinoNameAlreadyProposed()": [
        {
          "notice": "This dino name has already been proposed."
        }
      ],
      "DinoNameDoesNotExist()": [
        {
          "notice": "This dino name does not exists."
        }
      ],
      "DinoVoteAlreadyEnded()": [
        {
          "notice": "The dino vote has already ended."
        }
      ],
      "DinoVoteNotEnded()": [
        {
          "notice": "The dino vote has not ended yet."
        }
      ],
      "NoDinoNamesProposed()": [
        {
          "notice": "There were no dino names proposed."
        }
      ]
    },
    "kind": "user",
    "methods": {},
    "version": 1
  }
}